:10000000DEEF03F0F76A180FF66E000EF722000E0F
:10001000F86E0900F55012000C543A20256656205F
:10002000256620430A00EA6A2C0EE96EEF500EE0C6
:10003000080E016E006A002EFED7012EFBD7190EA6
:10004000006E002EFED700D0EF2EF2D7000CF80E77
:10005000996EFF0E966E878200008780000084CF25
:1000600032F08790000E966E32C001F03AEF00F049
:100070008794EDD701C032F001BEFBD730A0879442
:1000800030B08784000087920000879031C084FFE1
:1000900000008780030E006E002EFED700D08790F0
:1000A000000C000E966E879487928790320E2C6E0D
:1000B000BADF306A3C0E316EDBDF670E006E002E59
:1000C000FED700D0306A0C0E316ED2DF670E006EA4
:1000D000002EFED700D0306A010E316EC9DF020E4D
:1000E0002C6EA1DF306A060E316EC2DF11EF04F014
:1000F0008E0E006E23C001F022C002F0036A01528E
:1001000009E102C001F0026A080E005E015202E13C
:10011000006A08D0D89001BE04D00236013600062D
:10012000F9D7019E000C0C0E016EC250C30B0110DA
:10013000C26E140E006E002EFED70000C282C2B244
:10014000FED7C4CF03F0C3CF22F0C4CF23F0D0DF5B
:1001500003C021F002C020F001C01FF000C01EF05B
:100160001EC000F01FC001F020C002F021C003F04B
:1001700012EF04F0080E016EC250C30B0110C26EE4
:10018000140E006E002EFED70000C282C2B2FED74F
:10019000C4CF03F0C3CF22F0C4CF23F0A9DF03C044
:1001A00021F002C020F001C01FF000C01EF01EC0F0
:1001B00000F01FC001F020C002F021C003F01BEFCF
:1001C00004F02B50D8B471D0006E2F50D8B46DD03D
:1001D000002604E3810E002668E204D07F0E005E54
:1001E00064E363E02CC033F03050331A2C8E308E31
:1001F0002E503202F4CF35F02D503102F4CF03F0FF
:10020000F3CF34F03202F3503526F4503422000E8E
:1002100003222E503102F3503526F4503422000EC2
:10022000026A032202222C503202F3503426F45088
:100230000322000E02222C503102F3500326F45008
:100240000222000E016A01222E503002F3503426A1
:10025000F4500322000E022201222D503002F350EE
:100260000326F4500222000E01222C503002F350DB
:100270000226F4500122002A01BE05D0343603368E
:10028000023601360006000E34AE0AD0032A0222DE
:100290000122015005E1025003E1035001E1002A6F
:1002A00033BE018E33AE019E04D0006A016A026A39
:1002B000036A000C800ED8B2271A2C6A2D6A23C05C
:1002C0002BF027502B1A2250D8B4DCD02A6E006EA7
:1002D0002650D8B4E0D02A5ED8B481D03DE327C000
:1002E00030F0308E28C02FF029C02EF02D6AD89023
:1002F00030322F322E322D322A2EF8D72BAE03D0A9
:100300002C80DDD02C902A902C88EA6A250EE96E8C
:10031000E9D02C982BBE0AD02AA013D030322F322D
:100320002E322D32002AD8B4C5D00BD030BE0CD01E
:10033000D8902D362E362F3630360006D8B4BAD0A7
:10034000F5D72C8C6BD02C9C23C02BF023AE02D085
:10035000308EA9D0309EA7D026C02AF026C000F04B
:1003600022502A5E23C030F0308E24C02FF025C0EA
:100370002EF02D6AD89030322F322E322D322A2E86
:10038000F8D72BAE03D02C829AD02C922A902C8AAC
:10039000EA6A290EE96EA6D02C9A2BBE0AD02AA0B2
:1003A00013D030322F322E322D32002AD8B482D0E0
:1003B0000BD030BE0CD0D8902D362E362F3630369E
:1003C0000006D8B477D0F5D72C8E28D02C9E27C025
:1003D0002BF027AE02D0308E66D0309E64D027C07E
:1003E00030F0308E28C02FF029C02EF02BAE04D074
:1003F000309E2C8464D02C942D6A2A90EA6A250EB3
:10040000E96E70D02BBE1CD023C02BF02AA006D0E2
:1004100030322F322E322D32002A4CE02DAE0BD04E
:100420002E2A09E12F2A07E1302A05E130322F3246
:100430002E32002A3FE02CBC86D72CBEC7D71CD05A
:10044000800E301A30AE04D03AD027C02BF00AD03C
:1004500023C02BF0305206E12F5204E12E5202E16C
:10046000006A21D030BE08D0D8902D362E362F36D7
:100470003036002EF7D71ED02BAE02D0308E13D0E0
:10048000309E11D026C000F027C030F028C02FF0D9
:1004900029C02EF008D022C000F023C030F024C0C4
:1004A0002FF025C02EF030C001F02FC002F02EC07A
:1004B00003F034D0006A016A026A036A2FD02D6A01
:1004C0002E1E2F1E301E2D1E2D2A05E12E2A03E181
:1004D0002F2A01E1302A2CB015D72CB256D72CB4D4
:1004E0008AD7B3D7EF502E2605E32F2A03E1302A0F
:1004F000D8B42A80ED52EF502F2603E3302AD8B427
:100500002A80ED52EF50EFBE01D0800A3026D8B0DD
:100510002A802CB8FED62CBA3FD774D7000C2D2CCD
:1005200001D003D0400E2E6E01D02E6A010E2C5C3D
:100530002E262E5080092F6E306A316E99DDC1EF64
:1005400002F02B500C0A05E0060A0BE0020A0EE04E
:1005500012D0306A010E316E8BDD020E2C6E63DD1F
:1005600010D0010E2C6E020E2D6ED9D7306A100EEF
:10057000316E7EDD06D0010E306E2BC031F078DD9D
:1005800000D0000C2B50B6082B6E036A2CC02FF045
:100590002C8ED8902C322D322E3203320232013280
:1005A00000322B2EF6D72FAE0BD0001E011E021EDE
:1005B000031E002AD8B4012AD8B4022AD8B4032AC8
:1005C00046EF03F0006A016A026A036A336A346A1A
:1005D000356A366A3250311030102F102CE0200E60
:1005E000376ED8902B362C362D362E3633363436A1
:1005F000353636363250365C08E13150355C05E12F
:100600003050345C02E12F50335C0FE32F50335EE7
:100610003050D8A0303C345E3150D8A0313C355EEB
:100620003250D8A0323C365ED880003601360236D1
:100630000336372ED6D7EA6A330EE96E000CE9503E
:10064000236E2250256E19E021C02EF020C02DF01F
:100650001FC02CF01EC02BF0326A316A200E306EA3
:10066000820E2F6EAEDD03C021F002C020F001C06B
:100670001FF000C01EF0252EE7D721C02EF020C0AD
:100680002DF01FC02CF01EC02BF07CD703C021F032
:1006900002C020F001C01FF000C01EF021AE0DD03E
:1006A0002306238A1E1E1F1E201E211E1E2AD8B4AA
:1006B0001F2AD8B4202AD8B4212A3B0E2A6E9A0EBB
:1006C000296ECA0E286E276A0A0E256E2250D8B4EB
:1006D000232A21C02EF020C02DF01FC02CF01EC0F8
:1006E0002BF02AC032F029C031F028C030F027C0EA
:1006F0002FF068DF0150EFCF1EF0ECCF1FF0ECCFF2
:1007000020F0ECCF21F000520FE12228255C0CE014
:1007100023500CE00F0B255C01E037E223BE35D0FF
:1007200023BC04D0200E2DD0200E231623AA0CD0DB
:10073000239A2250D8A423060050236E2D0E2B6E30
:1007400000DF2350006E236A2250255C0AE100502E
:10075000236E2E0E2B6EF5DE2350006E200E231618
:10076000000E300E23AA0DD0239A2250D8A42306BF
:100770000050236E2D0E2B6EE4DE2350006E236A94
:10078000300E002600C02BF0DCDE2AC02EF029C07F
:100790002DF028C02CF027C02BF0326A316A306A65
:1007A0000A0E2F6E0FDF03C02AF002C029F001C02D
:1007B00028F000C027F0252E8CD7000CF86AD09EB8
:1007C000EA6AE96AC150C00BC16E070EB46E066AD0
:1007D000076A086A096A0A6A0B6A0C6A0D6A0E6A75
:1007E0000F6A106A116A126A136A146A156A166A25
:1007F000176A186A196A1A6A1B6A1C6A1D6AC0504D
:10080000C00B0109C06EC08EC280C28EC282C2B24D
:10081000FED7C29EC150C00B0B09C16EFF0E936E76
:1008200040D481D403C009F002C008F001C007F031
:1008300000C006F09FD403C015F002C014F001C040
:1008400013F000C012F009C02EF008C02DF007C050
:100850002CF006C02BF0DA0E326E316E530E306E75
:10086000760E2F6EAEDC03C00DF002C00CF001C09E
:100870000BF000C00AF015C02EF014C02DF013C00C
:100880002CF012C02BF0DA0E326E316E530E306E39
:10089000760E2F6E96DC03C019F002C018F001C06E
:1008A00017F000C016F00DC02EF00CC02DF00BC0DC
:1008B0002CF00AC02BF0326A316A480E306E850E79
:1008C0002F6E7FDC00C01EF001C01FF002C020F0C0
:1008D00003C021F0D88203C025F002C024F001C07B
:1008E00023F000C022F0296A286A480E276E840E81
:1008F000266EE0DC03C011F002C010F001C00FF062
:1009000000C00EF019C02EF018C02DF017C02CF04A
:1009100016C02BF0326A316A480E306E850E2F6E8B
:1009200050DC00C01EF001C01FF002C020F003C068
:1009300021F0D88203C025F002C024F001C023F0CA
:1009400000C022F0296A286A480E276E840E266E9F
:10095000B1DC03C01DF002C01CF001C01BF000C0E0
:100960001AF01E6A1E5002EC00F01E2A006E2B6E5A
:10097000E8DD040E1E5CF6E1890EE96E0DC021F083
:100980000CC020F00BC01FF00AC01EF0020E226E39
:1009900056DE560E2B6ED5DD200E2B6ED2DD890E67
:1009A000E96E11C021F010C020F00FC01FF00EC082
:1009B0001EF0020E226E43DE200E2B6EC2DD430EB1
:1009C0002B6EBFDD0A0E2B6EBCDD500E2B6EB9DD1B
:1009D0003A0E2B6EB6DD200E2B6EB3DD890EE96E5E
:1009E00019C021F018C020F017C01FF016C01EF06B
:1009F000020E226E24DE560E2B6EA3DD200E2B6E11
:100A0000A0DD890EE96E1DC021F01CC020F01BC0C6
:100A10001FF01AC01EF0020E226E11DE200E2B6E89
:100A200090DD430E2B6E8DDD640E2C6E13EC00F00A
:040A3000F8D60300F1
:020000040001F9
:06FFF80080F4C4FFF8F7DD
:00000001FF
;PIC18F97J60
;CRC=BA8C  CREATED="21-déc.-12 13:57"
