:100000002EEF04F0F76A180FF66E000EF722000EBE
:10001000F86E0900F55012000C54656D7020436FA6
:100020006E73203A202566200A00F76A3E0FF66EAE
:10003000000EF722000EF86E0900F550120054650C
:100040006D70204D6573757265203A20256600003D
:10005000EA6A330EE96EEF500EE0080E016E006A98
:10006000002EFED7012EFBD7190E006E002EFED7F4
:1000700000D0EF2EF2D7000CF80E996EFF0E966EA0
:10008000878200008780000084CF39F08790000EBF
:10009000966E39C001F04FEF00F08794EDD701C0A4
:1000A00039F001BEFBD737A0879437B087840000B2
:1000B00087920000879038C084FF00008780030E7D
:1000C000006E002EFED700D08790000C000E966EBA
:1000D000879487928790320E336EBADF376A3C0E70
:1000E000386EDBDF670E006E002EFED700D0376A59
:1000F0000C0E386ED2DF670E006E002EFED700D0D9
:10010000376A010E386EC9DF020E336EA1DF376A1F
:10011000060E386EC2DF6FEF04F08E0E006E2AC03E
:1001200001F029C002F0036A015209E102C001F0A6
:10013000026A080E005E015202E1006A08D0D890FF
:1001400001BE04D0023601360006F9D7019E000C2C
:100150000C0E016EC250C30B0110C26E140E006E65
:10016000002EFED70000C282C2B2FED7C4CF03F079
:10017000C3CF29F0C4CF2AF0D0DF03C028F002C0DB
:1001800027F001C026F000C025F025C000F026C0F1
:1001900001F027C002F028C003F075EF04F0080E4C
:1001A000016EC250C30B0110C26E140E006E002E01
:1001B000FED70000C282C2B2FED7C4CF03F0C3CFC5
:1001C00029F0C4CF2AF0A9DF03C028F002C027F02D
:1001D00001C026F000C025F025C000F026C001F0C7
:1001E00027C002F028C003F07EEF04F03250D8B4EC
:1001F00071D0006E3650D8B46DD0002604E3810E65
:10020000002668E204D07F0E005E64E363E033C042
:100210003AF037503A1A338E378E35503902F4CFD0
:100220003CF034503802F4CF03F0F3CF3BF0390206
:10023000F3503C26F4503B22000E03223550380286
:10024000F3503C26F4503B22000E026A03220222A5
:1002500033503902F3503B26F4500322000E0222A1
:1002600033503802F3500326F4500222000E016A84
:10027000012235503702F3503B26F4500322000E82
:100280000222012234503702F3500326F450022296
:10029000000E012233503702F3500226F45001229F
:1002A000002A01BE05D03B36033602360136000671
:1002B000000E3BAE0AD0032A02220122015005E1C2
:1002C000025003E1035001E1002A3ABE018E3AAE2A
:1002D000019E04D0006A016A026A036A000C800E63
:1002E000D8B22E1A336A346A2AC032F02E50321A2B
:1002F0002950D8B4DCD0316E006E2D50D8B4E0D087
:10030000315ED8B481D03DE32EC037F0378E2FC098
:1003100036F030C035F0346AD89037323632353264
:100320003432312EF8D732AE03D03380DDD0339063
:1003300031903388EA6A2C0EE96EE9D0339832BEE8
:100340000AD031A013D03732363235323432002A57
:10035000D8B4C5D00BD037BE0CD0D8903436353693
:10036000363637360006D8B4BAD0F5D7338C6BD0D2
:10037000339C2AC032F02AAE02D0378EA9D0379EE5
:10038000A7D02DC031F02DC000F02950315E2AC019
:1003900037F0378E2BC036F02CC035F0346AD89049
:1003A0003732363235323432312EF8D732AE03D0CE
:1003B00033829AD033923190338AEA6A300EE96EF2
:1003C000A6D0339A32BE0AD031A013D0373236329B
:1003D00035323432002AD8B482D00BD037BE0CD09C
:1003E000D89034363536363637360006D8B477D01E
:1003F000F5D7338E28D0339E2EC032F02EAE02D0E9
:10040000378E66D0379E64D02EC037F0378E2FC01F
:1004100036F030C035F032AE04D0379E338464D02D
:100420003394346A3190EA6A2C0EE96E70D032BE91
:100430001CD02AC032F031A006D0373236323532E5
:100440003432002A4CE034AE0BD0352A09E1362A8A
:1004500007E1372A05E1373236323532002A3FE0EC
:1004600033BC86D733BEC7D71CD0800E371A37AE01
:1004700004D03AD02EC032F00AD02AC032F037521F
:1004800006E1365204E1355202E1006A21D037BE5E
:1004900008D0D8903436353636363736002EF7D772
:1004A0001ED032AE02D0378E13D0379E11D02DC061
:1004B00000F02EC037F02FC036F030C035F008D035
:1004C00029C000F02AC037F02BC036F02CC035F020
:1004D00037C001F036C002F035C003F034D0006AF6
:1004E000016A026A036A2FD0346A351E361E371E2F
:1004F000341E342A05E1352A03E1362A01E1372A80
:1005000033B015D733B256D733B48AD7B3D7EF50F9
:10051000352605E3362A03E1372AD8B43180ED5277
:10052000EF50362603E3372AD8B43180ED52EF502E
:10053000EFBE01D0800A3726D8B0318033B8FED65E
:1005400033BA3FD774D7000C342C01D003D0400EFF
:10055000356E01D0356A010E335C35263550800981
:10056000366E376A386E99DDD6EF02F032500C0ADB
:1005700005E0060A0BE0020A0EE012D0376A010E0F
:10058000386E8BDD020E336E63DD10D0010E336EDC
:10059000020E346ED9D7376A100E386E7EDD06D063
:1005A000010E376E32C038F078DD00D0000C3250CA
:1005B000B608326E036A33C036F0338ED8903332C9
:1005C000343235320332023201320032322EF6D763
:1005D00036AE0BD0001E011E021E031E002AD8B428
:1005E000012AD8B4022AD8B4032A5BEF03F0006AC8
:1005F000016A026A036A3A6A3B6A3C6A3D6A395098
:100600003810371036102CE0200E3E6ED89032365F
:100610003336343635363A363B363C363D3639504D
:100620003D5C08E138503C5C05E137503B5C02E141
:1006300036503A5C0FE336503A5E3750D8A0373C1C
:100640003B5E3850D8A0383C3C5E3950D8A0393C8D
:100650003D5ED88000360136023603363E2ED6D7B0
:10066000EA6A3A0EE96E000CE9502A6E29502C6EA7
:1006700019E028C035F027C034F026C033F025C07B
:1006800032F0396A386A200E376E820E366EAEDD71
:1006900003C028F002C027F001C026F000C025F0FA
:1006A0002C2EE7D728C035F027C034F026C033F011
:1006B00025C032F07CD703C028F002C027F001C06B
:1006C00026F000C025F028AE0DD02A062A8A251E65
:1006D000261E271E281E252AD8B4262AD8B4272A43
:1006E000D8B4282A3B0E316E9A0E306ECA0E2F6E89
:1006F0002E6A0A0E2C6E2950D8B42A2A28C035F04A
:1007000027C034F026C033F025C032F031C039F0B4
:1007100030C038F02FC037F02EC036F068DF0150FF
:10072000EFCF25F0ECCF26F0ECCF27F0ECCF28F080
:1007300000520FE129282C5C0CE02A500CE00F0B32
:100740002C5C01E037E22ABE35D02ABC04D0200E52
:100750002DD0200E2A162AAA0CD02A9A2950D8A4C5
:100760002A0600502A6E2D0E326E00DF2A50006ECF
:100770002A6A29502C5C0AE100502A6E2E0E326E35
:10078000F5DE2A50006E200E2A16000E300E2AAA20
:100790000DD02A9A2950D8A42A0600502A6E2D0E70
:1007A000326EE4DE2A50006E2A6A300E002600C047
:1007B00032F0DCDE31C035F030C034F02FC033F021
:1007C0002EC032F0396A386A376A0A0E366E0FDF89
:1007D00003C031F002C030F001C02FF000C02EF095
:1007E0002C2E8CD7000C26C02DF02A502D1A2DAEA1
:1007F00005D0D894D89026BED8802FD026C02DF012
:1008000029C02EF025502E5E06E02DAE26D0D85001
:10081000010AD86E22D02AC02EF026502E5E06E0A5
:100820002DAE1BD0D850010AD86E17D02BC02EF099
:1008300027502E5E06E02DAE10D0D850010AD86E9B
:100840000CD02CC02EF028502E5E06E02DAE05D028
:10085000D850010AD86E01D0D890000CF86AD09E0A
:10086000EA6AE96AC150C00BC16E070EB46E066A2F
:10087000076A086A096A0A6A0B6A0C6A0D6A0E6AD4
:100880000F6A106A116A126A136A146A156A166A84
:10089000176A186A196A1A6A1B6A1C6A1D6A010EAD
:1008A0001E6E1F6A0F0E206E830E216E200E226EAA
:1008B000236A246AFF0E936E000E9A6EC050C00B1E
:1008C0000109C06EC08EC280C28EC282C2B2FED783
:1008D000C29EC150C00B0B09C16E66EF00F081CF04
:1008E0001EF020501E141F6E33D403C009F002C046
:1008F00008F001C007F000C006F051D403C015F0A5
:1009000002C014F001C013F000C012F009C035F0AD
:1009100008C034F007C033F006C032F0DA0E396E8A
:10092000386E530E376E760E366E60DC03C00DF0F7
:1009300002C00CF001C00BF000C00AF015C035F089
:1009400014C034F013C033F012C032F0DA0E396E36
:10095000386E530E376E760E366E48DC03C019F0D3
:1009600002C018F001C017F000C016F00DC035F03D
:100970000CC034F00BC033F00AC032F0396A386A68
:10098000480E376E850E366E31DC00C025F001C092
:1009900026F002C027F003C028F0D88203C02CF054
:1009A00002C02BF001C02AF000C029F0306A2F6A83
:1009B000480E2E6E840E2D6E92DC03C011F002C024
:1009C00010F001C00FF000C00EF019C035F018C0D3
:1009D00034F017C033F016C032F0396A386A480E66
:1009E000376E850E366E02DC00C025F001C026F0A1
:1009F00002C027F003C028F0D88203C02CF002C048
:100A00002BF001C02AF000C029F0306A2F6A480E8E
:100A10002E6E840E2D6E63DC03C01DF002C01CF030
:100A200001C01BF000C01AF0256A255002EC00F04E
:100A3000252A006E326E9ADD0D0E255CF6E1890ED8
:100A4000E96E24C028F023C027F022C026F021C080
:100A500025F0020E296E08DE200E326E87DD0A0EAA
:100A6000326E84DD256A255015EC00F0252A006ED3
:100A7000326E7CDD0E0E255CF6E1890EE96E11C04A
:100A800028F010C027F00FC026F00EC025F0020E8F
:100A9000296EEADDD89224C02CF023C02BF022C0AE
:100AA0002AF021C029F0306A2F6A200E2E6E810EA6
:100AB0002D6E15DC03C028F002C027F001C026F01F
:100AC00000C025F011C02CF010C02BF00FC02AF090
:100AD0000EC029F088DE23E2D88224C02CF023C087
:100AE0002BF022C02AF021C029F0306A2F6A200E94
:100AF0002E6E810E2D6E6FEC01F011C028F010C02B
:100B000027F00FC026F00EC025F003C02CF002C065
:100B10002BF001C02AF000C029F065DE04E39A6AD8
:100B2000400E916E03D09A6A800E916ED89224C0C6
:100B30002CF023C02BF022C02AF021C029F0306A0B
:100B40002F6A2E6A800E2D6E6FEC01F003C028F024
:100B500002C027F001C026F000C025F011C02CF023
:100B600010C02BF00FC02AF00EC029F03CDE02E3CB
:100B700095908C80D88224C02CF023C02BF022C00A
:100B80002AF021C029F0306A2F6A2E6A800E2D6E5D
:100B90006FEC01F011C028F010C027F00FC026F054
:100BA0000EC025F003C02CF002C02BF001C02AF0CB
:100BB00000C029F018DE02E395908C901F500E0AB9
:100BC00003E0030A1EE03AD0D89224C02CF023C0E0
:100BD0002BF022C02AF021C029F0306A2F6A2E6A39
:100BE0007F0E2D6E6FEC01F003C024F002C023F0E5
:100BF00001C022F000C021F0640E336E28EC00F03A
:100C00001DD0D88224C02CF023C02BF022C02AF0A3
:100C100021C029F0306A2F6A2E6A7F0E2D6E6FEC8C
:100C200001F003C024F002C023F001C022F000C094
:100C300021F0640E336E28EC00F000D0640E336EA9
:080C400028EC00F04CD6030083
:020000040001F9
:06FFF80080F4C4FFF8F7DD
:00000001FF
;PIC18F97J60
;CRC=A2DC  CREATED="21-déc.-12 16:10"
