:040000008AEF00F093
:08000800056ED8CF06F0E0CF31
:1000100007F00001E9CF0DF0EACF08F0E1CF09F0D9
:10002000E2CF0AF0D9CF0BF0DACF0CF0F3CF14F017
:10003000F4CF15F0FACF16F0FBCF17F000C00FF099
:1000400001C010F002C011F003C012F004C013F0A0
:10005000F2A82EEF00F0F2B267EF00F00FC000F050
:1000600010C001F011C002F012C003F013C004F080
:100070000DC0E9FF08C0EAFF088E09C0E1FF0AC011
:10008000E2FF0BC0D9FF0CC0DAFF14C0F3FF15C0AC
:10009000F4FF16C0FAFF17C0FBFF055007C0E0FFD2
:1000A00006C0D8FF1000EA6A210EE96EEF500EE09C
:1000B000080E016E006A002EFED7012EFBD7190E26
:1000C000006E002EFED700D0EF2EF2D7000CFF0EF0
:1000D0009A6E88CF1FF01E6A1E50020815E39A6AB6
:1000E000FF0E916E020E206EFA0E216EDCDF202EC6
:1000F000FBD79A6A916A020E206EFA0E216ED3DF48
:10010000202EFBD71E2AE8D79A6A1FC091FFF292D1
:100110002EEF00F0F86AD09E088EEA6AE96A7E86C1
:100120008A0EAF6E020E7F6EA60EAC6E900EAB6E98
:10013000C150C00BC16E070EB46E010E1A6E1B6E5D
:10014000FF0E936E000E9A6EF18CF288C00EF212C2
:100150001B5213E0020E1C6E196AF2BE198EF29E3B
:10016000FA0E216EA0DF19BEF28E1C2EF5D79A6A08
:100170001BC091FFD8901B36EBD7010E1B6EE8D742
:0201800003007A
:020000040001F9
:06FFF80080F4C4FFF8F7DD
:00000001FF
;PIC18F97J60
;CRC=CA0F  CREATED="08-févr.-13 09:24"
