:04000000B7EF02F064
:08000800056ED8CF06F0E0CF31
:1000100007F00001E9CF0DF0EACF08F0E1CF09F0D9
:10002000E2CF0AF0D9CF0BF0DACF0CF0F3CF14F017
:10003000F4CF15F0FACF16F000C00FF001C010F0A9
:1000400002C011F003C012F004C013F09DA42CEF05
:1000500000F09EB438EF02F00FC000F010C001F0C5
:1000600011C002F012C003F013C004F00DC0E9FF8C
:1000700008C0EAFF088E09C0E1FF0AC0E2FF0BC01A
:10008000D9FF0CC0DAFF14C0F3FF15C0F4FF16C08F
:10009000FAFF055007C0E0FF06C0D8FF10008E0E23
:1000A000006E1FC001F01EC002F0036A015209E198
:1000B00002C001F0026A080E005E015202E1006A0D
:1000C00008D0D89001BE04D0023601360006F9D718
:1000D000019E3CEF02F01E50D8B471D0006E225049
:1000E000D8B46DD0002604E3810E002668E204D067
:1000F0007F0E005E64E363E01FC026F02350261AE3
:100100001F8E238E21502502F4CF28F02050240288
:10011000F4CF03F0F3CF27F02502F3502826F45054
:100120002722000E032221502402F3502826F450E7
:100130002722000E026A032202221F502502F350DA
:100140002726F4500322000E02221F502402F350EF
:100150000326F4500222000E016A012221502302DC
:10016000F3502726F4500322000E022201222050D1
:100170002302F3500326F4500222000E01221F50E6
:100180002302F3500226F4500122002A01BE05D0BA
:1001900027360336023601360006000E27AE0AD097
:1001A000032A02220122015005E1025003E103501B
:1001B00001E1002A26BE018E26AE019E04D0006A0F
:1001C000016A026A036A4DEF02F0800ED8B2271A64
:1001D0002C6A2D6A23C02BF027502B1A2250D8B43A
:1001E000DCD02A6E006E2650D8B4E0D02A5ED8B497
:1001F00081D03DE327C030F0308E28C02FF029C0D9
:100200002EF02D6AD89030322F322E322D322A2EF7
:10021000F8D72BAE03D02C80DDD02C902A902C88E0
:10022000EA6A250EE96EE9D02C982BBE0AD02AA0E6
:1002300013D030322F322E322D32002AD8B4C5D00E
:100240000BD030BE0CD0D8902D362E362F3630360F
:100250000006D8B4BAD0F5D72C8C6BD02C9C23C018
:100260002BF023AE02D0308EA9D0309EA7D026C06E
:100270002AF026C000F022502A5E23C030F0308ED3
:1002800024C02FF025C02EF02D6AD89030322F32A6
:100290002E322D322A2EF8D72BAE03D02C829AD0B4
:1002A0002C922A902C8AEA6A290EE96EA6D02C9A02
:1002B0002BBE0AD02AA013D030322F322E322D324C
:1002C000002AD8B482D00BD030BE0CD0D8902D36B6
:1002D0002E362F3630360006D8B477D0F5D72C8E90
:1002E00028D02C9E27C02BF027AE02D0308E66D0AF
:1002F000309E64D027C030F0308E28C02FF029C047
:100300002EF02BAE04D0309E2C8464D02C942D6A19
:100310002A90EA6A250EE96E70D02BBE1CD023C04D
:100320002BF02AA006D030322F322E322D32002A66
:100330004CE02DAE0BD02E2A09E12F2A07E1302AFE
:1003400005E130322F322E32002A3FE02CBC86D716
:100350002CBEC7D71CD0800E301A30AE04D03AD095
:1003600027C02BF00AD023C02BF0305206E12F52C9
:1003700004E12E5202E1006A21D030BE08D0D890AC
:100380002D362E362F363036002EF7D71ED02BAE18
:1003900002D0308E13D0309E11D026C000F027C07E
:1003A00030F028C02FF029C02EF008D022C000F075
:1003B00023C030F024C02FF025C02EF030C001F053
:1003C0002FC002F02EC003F034D0006A016A026A26
:1003D000036A2FD02D6A2E1E2F1E301E2D1E2D2A91
:1003E00005E12E2A03E12F2A01E1302A2CB015D78E
:1003F0002CB256D72CB48AD7B3D7EF502E2605E3AC
:100400002F2A03E1302AD8B42A80ED52EF502F264C
:1004100003E3302AD8B42A80ED52EF50EFBE01D06A
:10042000800A3026D8B02A802CB8FED62CBA3FD706
:1004300074D765EF02F08E0E006E1E50005E1FC076
:1004400002F020C001F0028E005209E0D890025262
:1004500002E1015204E002320132002EF7D71FAE52
:1004600005D0011E021E012AD8B4022A6EEF02F046
:100470001F6A18C01EF013D6FB0E216EFA0E206EF6
:100480007A0E1F6E800E1E6E03C025F002C024F08F
:1004900001C023F000C022F01ED600C01EF001C033
:1004A0001FF002C020F003C021F0D89203C025F055
:1004B00002C024F001C023F000C022F0296A286A9B
:1004C0007A0E276E880E266E80D603C021F002C0F9
:1004D00020F001C01FF000C01EF0ADD702C01AF01E
:1004E00001C019F01B50010A03E0030A0CE016D00A
:1004F0001950BE261A50BF2294948B84090EBD6EEB
:10050000010E1B260BD01950BE261A50BF22949400
:100510008B94080EBD6E010E1B6E00D09E942CEFC6
:1005200000F0EA6A1C0EE96EEF500EE0010E016E5B
:10053000006A002EFED7012EFBD74A0E006E002E59
:10054000FED700D0EF2EF2D7000C150E1D5E0EE385
:10055000EA6A1D0EE96EFC0EEF16D890EF32EF320C
:10056000EF5004E001D00000EF2EFDD7000CF86A38
:10057000D09E088EEA6AE96A190EAF6EA60EAC6EBE
:10058000900EAB6EC180C182C184C196186A010E03
:100590001B6E9D84C00EF212CF6ACE6A850ECD6EA0
:1005A00094948B94080EBD6E186A183C01D00DD03F
:1005B000090E1C6EB6DF0B0E1C6E460E1D6EC5DFDF
:1005C0001C2EFBD7010E1826F0D7FF0E186E1852FE
:1005D0000DE0090E1C6EA5DF0B0E1C6E460E1D6E87
:1005E000B4DF1C2EFBD7010E185EF1D7DDD7030058
:020000040030CA
:0E00000000210E0E000181000FC00FE00F4026
:00000001FF
;PIC18F452
;CRC=93B5  CREATED="15-févr.-13 10:27"
