:0400000089EF01F093
:08000800056ED8CF06F0E0CF31
:1000100007F00001E9CF0DF0EACF08F0E1CF09F0D9
:10002000E2CF0AF0D9CF0BF0DACF0CF0F3CF14F017
:10003000F4CF15F0FACF16F0FBCF17F000C00FF099
:1000400001C010F002C011F003C012F004C013F0A0
:100050009DA02EEF00F09EB053EF00F00FC000F017
:1000600010C001F011C002F012C003F013C004F080
:100070000DC0E9FF08C0EAFF088E09C0E1FF0AC011
:10008000E2FF0BC0D9FF0CC0DAFF14C0F3FF15C0AC
:10009000F4FF16C0FAFF17C0FBFF055007C0E0FFD2
:1000A00006C0D8FF1000010E1926D8B01A2AD8B4FD
:1000B0001B2AD8B41C2A9E902EEF00F0EA6A320E5A
:1000C000E96EEF500EE0080E016E006A002EFED7BA
:1000D000012EFBD7190E006E002EFED700D0EF2E9A
:1000E000F2D7000CF80E996EFF0E966E8782000014
:1000F0008780000084CF38F08790000E966E38C05D
:1001000001F085EF00F08794EDD701C038F001BE13
:10011000FBD736A0879436B0878400008792000012
:10012000879037C084FF00008780030E006E002E8A
:10013000FED700D08790000C000E966E87948792B1
:100140008790320E326EBADF366A3C0E376EDBDFD6
:10015000670E006E002EFED700D0366A0C0E376E8A
:10016000D2DF670E006E002EFED700D0366A010E79
:10017000376EC9DF020E326EA1DF366A060E376EA9
:10018000C2DFA8EF01F0332C01D003D0400E346E53
:1001900001D0346A010E325C342634508009356E49
:1001A000366A376EB0DFF5EF00F031500C0A05E02B
:1001B000060A0BE0020A0EE012D0366A010E376E14
:1001C000A2DF020E326E7ADF10D0010E326E020E06
:1001D000336ED9D7366A100E376E95DF06D0010E12
:1001E000366E31C037F08FDF00D0000C006A016A34
:1001F000026A036A396A3A6A3B6A3C6A38503710C5
:10020000361035102CE0200E3D6ED8903136323647
:100210003336343639363A363B363C3638503C5C29
:1002200008E137503B5C05E136503A5C02E135505D
:10023000395C0FE33550395E3650D8A0363C3A5E13
:100240003750D8A0373C3B5E3850D8A0383C3C5E95
:10025000D88000360136023603363D2ED6D7EA6AFC
:10026000390EE96E000CE950296E3B0E306E9A0E85
:100270002F6ECA0E2E6E2D6A0A0E2B6E28C034F019
:1002800027C033F026C032F025C031F030C038F03E
:100290002FC037F02EC036F02DC035F0A7DF01504B
:1002A000EFCF25F0ECCF26F0ECCF27F0ECCF28F005
:1002B00000520FE12B50010A0CE029500BE00F0B0C
:1002C0002B5C01E00CE229BE0AD029BC03D0200E31
:1002D00002D0296A300E002600C031F066DF30C03F
:1002E00034F02FC033F02EC032F02DC031F0386A18
:1002F000376A366A0A0E356E79DF03C030F002C005
:100300002FF001C02EF000C02DF02B2EB7D7DDEF5F
:1003100001F0F86AD09E088EEA6AE96A7E868A0E43
:10032000AF6E020E7F6EA60EAC6E900EAB6EC1501D
:10033000C00BC16E070EB46E196A1A6A1B6A1C6A7A
:100340001D6A1E6A1F6A206A9D80C00EF212F4D6D2
:10035000CF6ACE6A870ECD6E040E216EFA0E326E13
:10036000ADDE212EFBD7CD6ACE501D6ECFCF1EF055
:100370001F6A206A1AC003F019C002F0006A016AFD
:1003800000501D24216E01501E20226E19501F2086
:10039000236E1A502020246E0C0E316E06DF200EC4
:1003A000316E03DF410EE96E24C028F023C027F030
:0E03B00022C026F021C025F056D7CAD7030080
:020000040001F9
:06FFF80080F4C4FFF8F7DD
:00000001FF
;PIC18F97J60
;CRC=1100  CREATED="08-févr.-13 11:16"
