:10000000CDEF00F0EA6A120EE96EEF500EE0080E36
:10001000016E006A002EFED7012EFBD7190E006E6E
:10002000002EFED700D0EF2EF2D7000CF80E996EFE
:10003000FF0E966E878200008780000084CF18F044
:100040008790000E966E18C001F029EF00F087949B
:10005000EDD701C018F001BEFBD716A0879416B0EB
:100060008784000087920000879017C084FF0000FB
:100070008780030E006E002EFED700D08790000C04
:10008000132C01D003D0400E146E01D0146A010E5F
:10009000125C142614508009156E166A176ED7DF8D
:1000A00072EF00F011500C0A05E0060A0BE0020A9C
:1000B0000EE012D0166A010E176EC9DF020E126E24
:1000C000A1DF10D0010E126E020E136ED9D7166A80
:1000D000100E176EBCDF06D0010E166E11C017F0A1
:1000E000B6DF00D0000CEACF10F0E9CF0FF00938EE
:1000F000F0090B6E0B26E20F0C6E320F0E6E0950DC
:100100000F0B0C260C260E26E90F0D6E0D260D2664
:1001100008380F0B0D260E260D360E360E1E0E3627
:1001200008500F0B0E260B36070E0A6E0A0E0D0630
:100130000E26FDE30C060D26FDE30B060C26FDE363
:100140000A060B26FDE3EA6A0A0EE96E070E0F1493
:100150000F9CE9260E0EE95CD8B40F8CEF50006EB0
:1001600008E10FBC06D00FB813D00FB602D0200E96
:1001700003D00F860F98300E0026EACF09F0E9CFA2
:1001800008F000C011F08EDF09C0EAFF08C0E9FFE7
:10019000EE500FACDFD7FEEF00F0F86AD09EEA6AAF
:1001A000E96A7E868A0EAF6E020E7F6EA60EAC6E78
:1001B000900EAB6EC150C00BC16E070EB46E066AD6
:1001C000076ACF6ACE6A870ECD6E040E086EFA0EED
:1001D000126E18DF082EFBD7CD6ACE50066ECFCF39
:1001E00007F00C0E116E5EDF200E116E5BDF100E3D
:1001F000E96E07C009F006C008F075D7E2D7030022
:020000040001F9
:06FFF80080F4C4FFF8F7DD
:00000001FF
;PIC18F97J60
;CRC=1E60  CREATED="08-févr.-13 10:58"
