:10000000EEEF00F0F76A180FF66E000EF722000E02
:10001000F86E0900F55012000C20626F75746F6E57
:1000200020310000F76A380FF66E000EF722000E3E
:10003000F86E0900F55012000C20626F75746F6E37
:1000400020322000F76A580FF66E000EF722000EDD
:10005000F86E0900F55012000C20626F75746F6E17
:1000600020330000F76A780FF66E000EF722000EBC
:10007000F86E0900F55012000C20626F75746F6EF7
:1000800020340000F76A980FF66E000EF722000E7B
:10009000F86E0900F55012000C566575696C6C65B8
:1000A0007A206170707579657A0A0000EA6A0B0E31
:1000B000E96EEF500EE0080E016E006A002EFED7CA
:1000C000012EFBD7190E006E002EFED700D0EF2EAA
:1000D000F2D7000CF80E996EFF0E966E8782000024
:1000E0008780000084CF11F08790000E966E11C0BB
:1000F00001F07DEF00F08794EDD701C011F001BE53
:10010000FBD70FA087940FB0878400008792000070
:10011000879010C084FF00008780030E006E002EC1
:10012000FED700D08790000C000E966E87948792C1
:100130008790320E0B6EBADF0F6A3C0E106EDBDF5B
:10014000670E006E002EFED700D00F6A0C0E106EE8
:10015000D2DF670E006E002EFED700D00F6A010EB0
:10016000106EC9DF020E0B6EA1DF0F6A060E106E55
:10017000C2DFFFEF00F00C2C01D003D0400E0D6E5B
:1001800001D00D6A010E0B5C0D260D5080090E6E1C
:100190000F6A106EB0DFEDEF00F00A500C0A05E0B8
:1001A000060A0BE0020A0EE012D00F6A010E106E72
:1001B000A2DF020E0B6E7ADF10D0010E0B6E020E64
:1001C0000C6ED9D70F6A100E106E95DF06D0010E97
:1001D0000F6E0AC010F08FDF00D0000CF86AD09EBE
:1001E000EA6AE96AC150C00BC16E070EB46E010E17
:1001F000066E076A0F0E086EFF0E936E95D781CFBD
:1002000006F008500614076E07500E0A07E0030AAE
:1002100010E0060A19E00C0A22E02CD0096A095005
:10022000F1DE092A006E0A6EB8DF0A0E095CF7E1FA
:100230002CD0096A0950F6DE092A006E0A6EADDF7D
:100240000B0E095CF7E121D0096A0950FBDE092A8F
:10025000006E0A6EA2DF0A0E095CF7E116D0096A89
:10026000095000DF092A006E0A6E97DF0A0E095C4A
:10027000F7E10BD0096A095005DF092A006E0A6E02
:100280008CDF120E095CF7E100D0640E0B6E0EDFFE
:04029000B6D70300DA
:020000040001F9
:06FFF80080F4C4FFF8F7DD
:00000001FF
;PIC18F97J60
;CRC=99CB  CREATED="14-déc.-12 14:20"
